:100000000C945D000C9485000C9485000C94850084
:100010000C9485000C9485000C9485000C9485004C
:100020000C9485000C9485000C9485000C94CF03EF
:100030000C9485000C9485000C9485000C9485002C
:100040000C942D030C9485000C949D030C94770361
:100050000C9485000C9485000C9485000C9485000C
:100060000C9485000C94850000000008000201003B
:100070000003040700000000000000000000000072
:10008000250028002B0000000000240027002A0083
:10009000040404040404040402020202020203032E
:1000A0000303030301020408102040800102040836
:1000B00010200102040810208B0411241FBECFEF72
:1000C000D8E0DEBFCDBF11E0A0E0B1E0E6E1FEE0A8
:1000D00002C005900D92A432B107D9F721E0A4E245
:1000E000B1E001C01D92A83FB207E1F710E0CDE5F5
:1000F000D0E004C02197FE010E940307CC35D10750
:10010000C9F70E9402050C9409070C94000090E0C6
:10011000FC01EC55FF4F249180579F4FFC018491C7
:10012000882399F090E0880F991FFC01EA57FF4F50
:10013000A591B491FC01E458FF4F859194918FB73C
:10014000F894EC91E22BEC938FBF089590E0FC01C2
:10015000E859FF4F2491FC01EC55FF4F3491FC010D
:10016000E057FF4FE491EE23C9F0222339F023300A
:1001700001F1A8F4213019F1223029F1F0E0EE0F5D
:10018000FF1FE458FF4FA591B4918FB7F894EC91FD
:10019000611126C030953E233C938FBF08952730D0
:1001A000A9F02830C9F0243049F7809180008F7D74
:1001B00003C0809180008F7780938000DFCF84B56B
:1001C0008F7784BDDBCF84B58F7DFBCF8091B0006E
:1001D0008F778093B000D2CF8091B0008F7DF9CF20
:1001E0003E2BDACF3FB7F89480912C0190912D01EE
:1001F000A0912E01B0912F0126B5A89B05C02F3FDD
:1002000019F00196A11DB11D3FBFBA2FA92F982F3C
:100210008827BC01CD01620F711D811D911D42E037
:10022000660F771F881F991F4A95D1F708958F92FF
:100230009F92AF92BF92CF92DF92EF92FF924B01CB
:100240005C010E94F2006B017C010E94F2006C19BB
:100250007D098E099F09683E734081059105A8F3C9
:1002600021E0821A9108A108B10888EEC80E83E047
:10027000D81EE11CF11C81149104A104B10429F7DA
:10028000FF90EF90DF90CF90BF90AF909F908F90B6
:100290000895AF92BF92CF92DF92EF92FF920F93A9
:1002A0001F93CF93DF936C017B018B01040F151F0C
:1002B000EB015E01AE18BF08C017D10759F0699174
:1002C000D601ED91FC910190F081E02DC6010995D8
:1002D000892B79F7C501DF91CF911F910F91FF9085
:1002E000EF90DF90CF90BF90AF900895FC01538DB9
:1002F000448D252F30E0842F90E0821B930B541700
:1003000010F0CF96089501970895FC01918D828D8C
:10031000981761F0A28DAE0FBF2FB11D5D968C9125
:10032000928D9F5F9F73928F90E008958FEF9FEF64
:100330000895FC01918D828D981731F0828DE80F20
:10034000F11D858D90E008958FEF9FEF0895FC01DA
:10035000918D228D892F90E0805C9F4F821B9109A7
:100360008F739927089580E391E00E94A70121E00F
:10037000892B09F420E0822F089580E090E0892BFA
:1003800029F00E94B30181110C9400000895FC0132
:10039000A48DA80FB92FB11DA35ABF4F2C91848DE6
:1003A00090E001968F739927848FA689B7892C9343
:1003B000A089B1898C91837080648C93938D848D96
:1003C000981306C00288F389E02D80818F7D808399
:1003D0000895EF92FF920F931F93CF93DF93EC0159
:1003E00081E0888F9B8D8C8D98131AC0E889F989DC
:1003F000808185FF15C09FB7F894EE89FF896083DF
:10040000E889F98980818370806480839FBF81E05F
:1004100090E0DF91CF911F910F91FF90EF900895A1
:10042000F62E0B8D10E00F5F1F4F0F731127E02E7C
:100430008C8D8E110CC00FB607FCFACFE889F989B4
:10044000808185FFF5CFCE010E94C701F1CFEB8DF2
:10045000EC0FFD2FF11DE35AFF4FF0829FB7F89488
:100460000B8FEA89FB8980818062CFCFCF93DF93A6
:10047000EC01888D8823B9F0AA89BB89E889F989BC
:100480008C9185FD03C0808186FD0DC00FB607FCF1
:10049000F7CF8C9185FFF2CF808185FFEDCFCE0124
:1004A0000E94C701E9CFDF91CF910895CF92DF92EB
:1004B000EF92FF92CF93DF93EC01603282E07807F6
:1004C000CCF5653B710514F064EB70E0898128E898
:1004D00030E0281B310987FD3395220F331F220F8F
:1004E000331F6901330FEE08FF088A8128E532E0E7
:1004F000281B310987FD3395220F331F220F331F2D
:10050000032E000C440B550B2C193D094E095F09B5
:10051000DB0177FF02C0B0E0A0E00E94BE0624EB42
:1005200030E040E050E00E949406C20ED31EE41E6C
:10053000F51EB601E881EC3070F5298188E890E07D
:10054000821B910927FD9395880F991F880F991F8A
:10055000681779077CF02A8188E592E0821B91096F
:1005600027FD9395880F991F880F991F68177907A2
:100570000CF4CB010297880F991F4FB7F8942E2FD8
:1005800030E0F901EE0FFF1FE20FF31FE353FE4FC0
:10059000928381834FBFDF91CF91FF90EF90DF90E7
:1005A000CF9008951F93CF93DF93EC01162F88818E
:1005B0008C3008F04DC0862F0E9487008881282F3C
:1005C00030E0F901EE0FFF1FE20FF31FE353FE4F80
:1005D0001F736081607C612B608319821A822CE01A
:1005E000622F0E94F706829FB001112430E020E0C4
:1005F000AB01420F531FFA01EE0FFF1FE40FF51F6F
:10060000E353FE4F908196FD16C02F5F3F4F2C3075
:10061000310571F781110FC01092800082E0809344
:1006200081001092850010928400B19A80916F0031
:10063000826080936F00E8818E2F90E0FC01EE0FC6
:10064000FF1FE80FF91FE353FE4F80818064808312
:100650008881DF91CF911F9108951F920F920FB65D
:100660000F9211242F933F938F939F93AF93BF9338
:100670008091280190912901A0912A01B0912B012C
:100680003091270123E0230F2D3758F50196A11D46
:10069000B11D209327018093280190932901A093F5
:1006A0002A01B0932B0180912C0190912D01A091F2
:1006B0002E01B0912F010196A11DB11D80932C0137
:1006C00090932D01A0932E01B0932F01BF91AF9174
:1006D0009F918F913F912F910F900FBE0F901F9080
:1006E000189526E8230F0296A11DB11DD2CF1F92A7
:1006F0000F920FB60F9211242F933F934F935F9356
:100700006F937F938F939F93AF93BF93EF93FF93D9
:1007100080E391E00E94C701FF91EF91BF91AF91FB
:100720009F918F917F916F915F914F913F912F9109
:100730000F900FBE0F901F9018951F920F920FB63B
:100740000F9211242F938F939F93EF93FF93E09138
:100750004001F09141018081E0914601F091470113
:1007600082FD1BC09081809149018F5F8F73209122
:100770004A01821741F0E0914901F0E0E05DFE4F4F
:10078000958F80934901FF91EF919F918F912F91C8
:100790000F900FBE0F901F9018958081F4CF1F927D
:1007A0000F920FB60F9211242F933F934F935F93A5
:1007B0006F937F938F939F93AF93BF93CF93DF9369
:1007C000EF93FF9380912401C091F101D0E087FF66
:1007D00024C01092850010928400809124018F5FC4
:1007E0008093240180912401082E000C990B8C1712
:1007F0009D0724F4809124018C30C4F18091840001
:1008000090918500049680349C4908F47AC08091C8
:10081000840090918500049676C080912401082E72
:10082000000C990B8C179D07C4F6E09124018E2FC4
:10083000EE0F990BFC01EE0FFF1FE80FF91FE353BA
:10084000FE4F808186FFC9CFE09124018E2FEE0FED
:10085000990BFC01EE0FFF1FE80FF91FE353FE4F4A
:10086000808160E08F730E94A600B7CF2091840042
:1008700030918500E09124018E2FEE0F990BFC0141
:10088000EE0FFF1FE80FF91FE353FE4F81819281A6
:10089000820F931F9093890080938800E091240138
:1008A0008E2FEE0F990BFC01EE0FFF1FE80FF91FC3
:1008B000E353FE4F808186FF11C0E09124018E2F0B
:1008C000EE0F990BFC01EE0FFF1FE80FF91FE3532A
:1008D000FE4F808161E08F730E94A600FF91EF912F
:1008E000DF91CF91BF91AF919F918F917F916F9148
:1008F0005F914F913F912F910F900FBE0F901F90DE
:10090000189580E49CE990938900809388008FEF8C
:1009100080932401E3CF109233011092320188EECC
:1009200093E0A0E0B0E08093340190933501A09370
:100930003601B093370184E091E0909331018093C8
:10094000300185EC90E090933D0180933C0184EC74
:1009500090E090933F0180933E0180EC90E0909373
:1009600041018093400181EC90E09093430180939A
:10097000420182EC90E0909345018093440186EC23
:1009800090E09093470180934601109249011092A4
:100990004A0110924B0110924C018091F1018C3070
:1009A00048F591E0980F9093F1018093F50190E064
:1009B000FC01EE0FFF1FE80FF91FE353FE4F88EB1A
:1009C0009BE0928381838091F1018C30B8F491E0B7
:1009D000980F9093F1018093F20190E0FC01EE0FEB
:1009E000FF1FE80FF91FE353FE4F88EB9BE0928354
:1009F000818308958FEF8093F501E5CF8FEF80938A
:100A0000F2010895789484B5826084BD84B58160D4
:100A100084BD85B5826085BD85B5816085BD8091C9
:100A20006E00816080936E00109281008091810041
:100A30008260809381008091810081608093810039
:100A4000809180008160809380008091B1008460FB
:100A50008093B1008091B00081608093B00080915C
:100A60007A00846080937A0080917A00826080931B
:100A70007A0080917A00816080937A0080917A0078
:100A8000806880937A001092C10083E00E94870002
:100A900085E00E94870086E00E9487008AE00E942D
:100AA00087008CE00E9487008BE00E94870063E053
:100AB00070E085EF91E00E94D20265E070E082EF85
:100AC00091E00E94D202E0914001F091410182E068
:100AD0008083E0913C01F0913D011082E0913E0164
:100AE000F0913F018FEC808310924801E091440126
:100AF000F091450186E08083E0914201F09143014D
:100B0000808180618083E0914201F0914301808186
:100B100088608083E0914201F09143018081806888
:100B20008083E0914201F091430180818F7D808339
:100B30004DE050E062E171E080E391E00E94490104
:100B400042E050E060E271E080E391E00E94490100
:100B500070E060E085EF91E00E94560270E060E096
:100B600082EF91E00E94560260E086E00E94A600BB
:100B700060E08AE00E94A60060E08CE00E94A6008F
:100B800060E08BE00E94A60083E7E82E80E0F82E6C
:100B9000C8ECD0E098ECD92E00E010E080E391E0C2
:100BA0000E94A701892B81F080E391E00E948501DA
:100BB0009EE9980F923070F5823681F0833601F10C
:100BC00080E391E00E9436020115110539F30E947D
:100BD000B301882319F30E940000E0CF6091250142
:100BE000709126016C3371055CF76F5F7F4F7093D6
:100BF00026016093250185EF91E00E945602E0CF27
:100C0000609125017091260116161706CCF66150E9
:100C10007109EDCF9CE9980F923008F5843641F0C8
:100C2000853671F660E086E00E94A60061E005C0AE
:100C300061E086E00E94A60060E08AE00E94A600D3
:100C400062E070E080E090E00E94170160E086E0E2
:100C50000E94A60060E08AE00E94A600B1CF833720
:100C600089F46AE570E082EF91E00E94560268EC38
:100C700070E080E090E00E94170170E060E082EF99
:100C800091E0BBCF8F36A9F08F3409F099CF60E0A7
:100C90008CE00E94A6008BE00E948700F7018491FF
:100CA000833041F168F48130D9F08230F1F061E0B5
:100CB00005C060E08CE00E94A60060E08BE0CCCF35
:100CC000873011F1883041F1843089F780918000BC
:100CD000806280938000D0938B00C0938A0070CF95
:100CE00084B5806884BDD7BC6BCF84B5806284BD79
:100CF000D8BC66CF80918000806880938000D093BC
:100D00008900C09388005CCF8091B0008068809398
:100D1000B000D092B30054CF8091B0008062809335
:100D2000B000D092B4004CCF052E97FB1EF4009477
:100D30000E94AB0657FD07D00E94C60607FC03D0F1
:100D40004EF40C94AB0650954095309521953F4F4D
:100D50004F4F5F4F089590958095709561957F4FA7
:100D60008F4F9F4F08950E94E806A59F900DB49F56
:100D7000900DA49F800D911D11240895B7FF0C9430
:100D8000B3060E94B306821B930B0895A1E21A2EAC
:100D9000AA1BBB1BFD010DC0AA1FBB1FEE1FFF1F1F
:100DA000A217B307E407F50720F0A21BB30BE40B6F
:100DB000F50B661F771F881F991F1A9469F76095B6
:100DC0007095809590959B01AC01BD01CF01089570
:100DD000A29FB001B39FC001A39F700D811D11247C
:100DE000911DB29F700D811D1124911D0895991BB5
:100DF00079E004C0991F961708F0961B881F7A9512
:100E0000C9F780950895EE0FFF1F0590F491E02D2E
:060E10000994F894FFCFE5
:100E160000000000E901490176013602A7018501BB
:100E26009901547572726574207265616479210046
:040E36000D0A0000A1
:00000001FF
